:100000000C942A000C9447000C9447000C94470071
:100010000C9447000C9447000C947F1D0C944700EF
:100020000C9447000C9447000C94501C0C94E71B54
:100030000C9447000C9447000C9447000C94470024
:100040000C9447000C9447000C9447000C94470014
:100050000C94470011241FBECFE5D8E0DEBFCDBF12
:1000600011E0A0E6B0E0ECEBFCE302C005900D92DD
:10007000A832B107D9F711E0A8E2B1E001C01D92A2
:10008000A533B107E1F70E9486120C945C1E0C9414
:100090000000EF92FF920F931F937B018C0120E0F1
:1000A00030E040E05FE40E94F50388238CF0C80153
:1000B000B70120E030E040E05FE40E94C1010E940F
:1000C00055049B01AC01205030404040504806C0D0
:1000D000C801B7010E9455049B01AC01B901CA01D6
:1000E0001F910F91FF90EF900895A0E0B0E0EBE733
:1000F000F0E00C94E01DDC012B01FA019C919230A0
:1001000008F439C1EB018881823008F433C194309E
:1001100069F4843009F02FC111969C91119789815F
:10012000981709F428C1A8EFB0E025C1843009F47C
:1001300021C18230A9F4923009F01DC19A01AD01AC
:1001400088E0EA010990AE01E90109929E0181501F
:10015000C1F7E201898111969C918923818308C1AD
:10016000923009F407C112962D903C901397EB0141
:100170008A819B811496AD90BD90CD90DC901797AD
:10018000EC80FD800E811F819101281B390BB90184
:1001900037FF04C066277727621B730B6032710537
:1001A0000CF061C0121613066CF537014801062EDB
:1001B00004C096948794779467940A94D2F721E0C8
:1001C00030E040E050E004C0220F331F441F551FB1
:1001D0006A95D2F721503040404050402E213F21B7
:1001E00040235123211531054105510521F021E01E
:1001F00030E040E050E079018A01E628F72808293C
:1002000019293CC0232BD1F1260E371E350146019A
:10021000062E04C096948794779467940A94D2F734
:1002200021E030E040E050E004C0220F331F441FC3
:10023000551F6A95D2F721503040404050402A2146
:100240003B214C215D21211531054105510521F04E
:1002500021E030E040E050E059016A01A628B728CB
:10026000C828D9280BC0821593052CF01C01AA249C
:10027000BB24650103C0EE24FF24870111969C91E5
:10028000D20111968C91981709F445C0992339F041
:10029000A80197012A193B094C095D0906C0A6016E
:1002A00095012E193F09400B510B57FD08C01182D3
:1002B0003382228224833583468357831DC081E0A5
:1002C00081833382228288279927DC01821B930B4A
:1002D000A40BB50B84839583A683B7830DC0220F2F
:1002E000331F441F551F24833583468357838281E0
:1002F000938101979383828324813581468157813D
:10030000DA01C9010197A109B1098F5F9F4FAF4F72
:10031000BF4328F30BC0918333822282EA0CFB1C7B
:100320000C1D1D1DE482F5820683178383E0808304
:10033000248135814681578157FF1AC0C901AA27F8
:1003400097FDA095BA2F81709070A070B0705695EF
:10035000479537952795822B932BA42BB52B848318
:100360009583A683B7838281938101969383828349
:10037000DF0101C0D201CD01CDB7DEB7E2E10C94BF
:10038000FC1DA0E2B0E0E7ECF1E00C94EC1D698309
:100390007A838B839C832D833E834F835887E9E048
:1003A000EE2EF12CEC0EFD1ECE010196B7010E943F
:1003B0007E058E010F5E1F4FCE010596B8010E948B
:1003C0007E058A8991E089278A8BC701B801AE0131
:1003D000475E5F4F0E9475000E94A904A096E6E068
:1003E0000C94081EA0E2B0E0E8EFF1E00C94EC1DE4
:1003F00069837A838B839C832D833E834F835887C5
:10040000F9E0EF2EF12CEC0EFD1ECE010196B701A6
:100410000E947E058E010F5E1F4FCE010596B8012A
:100420000E947E05C701B801AE01475E5F4F0E9482
:1004300075000E94A904A096E6E00C94081EA0E2B4
:10044000B0E0E5E2F2E00C94E01D69837A838B83EF
:100450009C832D833E834F835887CE010196BE0136
:10046000675F7F4F0E947E05CE010596BE016F5EDD
:100470007F4F0E947E059985923088F0898982306D
:10048000C8F0943019F4823051F404C0843029F457
:10049000923081F488EF90E0C6C0923049F420E0B9
:1004A0009A858A89981321E02A87CE010996BBC0D4
:1004B000823049F420E09A858A89981321E02A8BBA
:1004C000CE014196B0C02D843E844F8458886D88FB
:1004D0007E888F88988CEE24FF248701AA24BB2471
:1004E000650140E050E060E070E0E0E0F0E0C10174
:1004F00081709070892BE9F0E60CF71C081D191D1E
:100500009A01AB012A0D3B1D4C1D5D1D80E090E062
:10051000A0E0B0E0E614F7040805190520F481E036
:1005200090E0A0E0B0E0BA01A901480F591F6A1F8E
:100530007B1FAA0CBB1CCC1CDD1C97FE08C081E0F5
:1005400090E0A0E0B0E0A82AB92ACA2ADB2A3196B6
:10055000E032F10549F0660C771C881C991C569412
:10056000479437942794C3CFFA85EA892B893C892D
:100570008B859C85280F391F2E5F3F4F17C0CA01FE
:1005800081709070892B61F016950795F794E79428
:1005900080E090E0A0E0B0E8E82AF92A0A2B1B2BC3
:1005A00076956795579547952F5F3F4F77FDE7CF36
:1005B0000CC0440F551F661F771F17FD4160EE0CDE
:1005C000FF1C001F111F21503040403090E05907A0
:1005D00090E0690790E4790760F32B8F3C8FDB0193
:1005E000CA018F779070A070B07080349105A1051A
:1005F000B10561F447FD0AC0E114F10401051105DC
:1006000029F0405C5F4F6F4F7F4F40781A8EFE1786
:1006100011F081E08A8F4D8F5E8F6F8F78A383E01A
:10062000898FCE0149960E94A904A096E2E10C941C
:10063000FC1DA8E1B0E0EFE1F3E00C94E81D698354
:100640007A838B839C832D833E834F835887B9E0C5
:10065000EB2EF12CEC0EFD1ECE010196B7010E948F
:100660007E058E010F5E1F4FCE010596B8010E94D8
:100670007E052985223008F47EC03989323010F495
:10068000B8017CC08A859A8989278A87243011F02D
:10069000223031F4231709F06EC068EF70E06EC0AD
:1006A000343039F41D861E861F86188A1C861B86E8
:1006B00004C0323021F484E08987B7015FC02B8504
:1006C0003C858B899C89281B390B3C872B87ED84C3
:1006D000FE840F851889AD88BE88CF88D88CEA142F
:1006E000FB040C051D0540F4EE0CFF1C001F111F40
:1006F000215030403C872B8720E030E040E050E044
:1007000080E090E0A0E0B0E460E070E0EA14FB0478
:100710000C051D0540F0282B392B4A2B5B2BEA18C2
:10072000FB080C091D09B695A79597958795EE0CC2
:10073000FF1C001F111F6F5F7F4F6F31710531F775
:10074000DA01C9018F779070A070B0708034910584
:10075000A105B10561F427FD0AC0E114F10401050A
:10076000110529F0205C3F4F4F4F5F4F20782D87B8
:100770003E874F87588BBE01675F7F4FCB010E943A
:10078000A9046896EAE00C94041EA8E1B0E0EBEC42
:10079000F3E00C94EC1D69837A838B839C832D8317
:1007A0003E834F83588789E0E82EF12CEC0EFD1E26
:1007B000CE010196B7010E947E058E010F5E1F4F8C
:1007C000CE010596B8010E947E058985823040F0F1
:1007D0008989823028F0C701B8010E94F60501C05E
:1007E0008FEF6896E6E00C94081EA8E1B0E0EBEF0E
:1007F000F3E00C94EC1D69837A838B839C832D83B7
:100800003E834F83588789E0E82EF12CEC0EFD1EC5
:10081000CE010196B7010E947E058E010F5E1F4F2B
:10082000CE010596B8010E947E058985823040F090
:100830008989823028F0C701B8010E94F60501C0FD
:100840008FEF6896E6E00C94081EA8E1B0E0EBE2BA
:10085000F4E00C94EC1D69837A838B839C832D8355
:100860003E834F83588789E0E82EF12CEC0EFD1E65
:10087000CE010196B7010E947E058E010F5E1F4FCB
:10088000CE010596B8010E947E058985823040F030
:100890008989823028F0C701B8010E94F60501C09D
:1008A00081E06896E6E00C94081EACE0B0E0EBE571
:1008B000F4E00C94F01D69837A838B839C83CE01D2
:1008C0000196BE016B5F7F4F0E947E058D81823055
:1008D00061F1823050F1843021F48E81882351F10E
:1008E0002EC02F81388537FD20C06E812F31310514
:1008F0001CF06623F9F023C08EE190E0821B930B7D
:1009000029853A854B855C8504C056954795379572
:1009100027958A95D2F76623B1F05095409530958A
:1009200021953F4F4F4F5F4F0EC020E030E040E039
:1009300050E009C02FEF3FEF4FEF5FE704C020E02A
:1009400030E040E050E8B901CA012C96E2E00C9496
:100950000C1EDF92EF92FF920F931F93FC01E48035
:10096000F58006811781D1808081823048F480E053
:1009700090E0A0E1B0E0E82AF92A0A2B1B2BA5C0E1
:10098000843009F49FC0823021F4EE24FF248701D3
:1009900005C0E114F1040105110519F4E0E0F0E0EF
:1009A00096C0628173819FEF623879070CF05BC05B
:1009B00022E83FEF261B370B2A3131052CF020E0CF
:1009C00030E040E050E02AC0B801A701022E04C088
:1009D00076956795579547950A94D2F781E090E010
:1009E000A0E0B0E004C0880F991FAA1FBB1F2A9582
:1009F000D2F70197A109B1098E219F21A023B1232C
:100A00000097A105B10521F081E090E0A0E0B0E001
:100A10009A01AB01282B392B4A2B5B2BDA01C90138
:100A20008F779070A070B07080349105A105B105EA
:100A300039F427FF09C0205C3F4F4F4F5F4F04C080
:100A4000215C3F4F4F4F5F4FE0E0F0E02030A0E0EF
:100A50003A07A0E04A07A0E45A0710F0E1E0F0E00E
:100A600079018A0127C06038710564F5FB01E158FE
:100A7000FF4FD801C7018F779070A070B07080349D
:100A80009105A105B10539F4E7FE0DC080E490E0C1
:100A9000A0E0B0E004C08FE390E0A0E0B0E0E80E9A
:100AA000F91E0A1F1B1F17FF05C016950795F7941F
:100AB000E794319687E016950795F794E7948A9521
:100AC000D1F705C0EE24FF248701EFEFF0E06E2F91
:100AD000679566276795902F9F77D794DD24D794E5
:100AE0008E2F8695492F462B582F5D29B701CA01B5
:100AF0001F910F91FF90EF90DF900895FC01DB01B3
:100B0000408151812281622F6F7770E0221F22275E
:100B1000221F9381892F880F822B282F30E0991F65
:100B20009927991F11969C93119721153105A9F5C5
:100B3000411551056105710511F482E037C082E865
:100B40009FEF13969C938E9312979A01AB0167E0E7
:100B5000220F331F441F551F6A95D1F783E08C93F2
:100B60000DC0220F331F441F551F12968D919C916B
:100B70001397019713969C938E931297203080E0E1
:100B8000380780E0480780E4580758F314962D93FF
:100B90003D934D935C93179708952F3F310579F45A
:100BA000411551056105710519F484E08C93089590
:100BB00064FF03C081E08C9312C01C9210C02F57B9
:100BC000304013963C932E93129783E08C9387E0EA
:100BD000440F551F661F771F8A95D1F770641496CE
:100BE0004D935D936D937C93179708951F93DC014C
:100BF000FB019C91923008F447C08081823008F458
:100C000043C0943051F411961C91843099F5818140
:100C1000682F70E0611B71093FC0843021F0923071
:100C200031F48230B9F18181882389F12DC0119688
:100C30001C9111978230F1F081811817D9F4129626
:100C40002D913C911397828193818217930794F0A1
:100C500028173907BCF014968D919D910D90BC9189
:100C6000A02D2481358146815781281739074A07ED
:100C70005B0718F4112341F00AC082179307A407F9
:100C8000B50740F4112319F061E070E005C06FEF83
:100C90007FEF02C060E070E0CB011F910895DF9309
:100CA000CF93CDB7DEB7EAE3F0E08FEF8083E7E3E1
:100CB000F0E08FEF8083E4E3F0E08FE08083E1E316
:100CC000F0E08FEF8083EBE3F0E01082E8E3F0E008
:100CD0001082E5E3F0E08FEF8083E2E3F0E0108242
:100CE000CF91DF910895DF93CF93CDB7DEB72E97E5
:100CF0000FB6F894DEBF0FBECDBF8A836B834C83E3
:100D000081E089838A81843008F013C18B81883027
:100D100008F00FC18C81813021F08C81882309F08B
:100D200008C18A81282F30E03E872D878D859E85DA
:100D30008130910509F450C02D853E852230310562
:100D40002CF48D859E85009771F0F1C02D853E8530
:100D50002230310509F479C08D859E858330910557
:100D600009F4ACC0E4C08C81282F30E03C872B878D
:100D70008B859C850097C9F02B853C8521303105FA
:100D800049F5AAE3B0E0EAE3F0E08081482F8B81E7
:100D9000282F30E081E090E0022E02C0880F991FDA
:100DA0000A94E2F7842B8C93C5C0AAE3B0E0EAE38F
:100DB000F0E08081482F8B81282F30E081E090E0A7
:100DC000022E02C0880F991F0A94E2F780958423AF
:100DD0008C93B0C01982AEC08C81282F30E03A8746
:100DE000298789859A850097C9F029853A85213018
:100DF000310549F5A7E3B0E0E7E3F0E08081482F53
:100E00008B81282F30E081E090E0022E02C0880F15
:100E1000991F0A94E2F7842B8C938CC0A7E3B0E06F
:100E2000E7E3F0E08081482F8B81282F30E081E0DC
:100E300090E0022E02C0880F991F0A94E2F7809575
:100E400084238C9377C0198275C08C81282F30E061
:100E500038872F838F8198850097C9F02F81388537
:100E60002130310549F5A4E3B0E0E4E3F0E080810E
:100E7000482F8B81282F30E081E090E0022E02C0C5
:100E8000880F991F0A94E2F7842B8C9353C0A4E334
:100E9000B0E0E4E3F0E08081482F8B81282F30E040
:100EA00081E090E0022E02C0880F991F0A94E2F7B9
:100EB000809584238C933EC019823CC08C81282F5E
:100EC00030E03E832D838D819E810097C9F02D8176
:100ED0003E812130310549F5A1E3B0E0E1E3F0E0E6
:100EE0008081482F8B81282F30E081E090E0022E16
:100EF00002C0880F991F0A94E2F7842B8C931AC0C2
:100F0000A1E3B0E0E1E3F0E08081482F8B81282F5E
:100F100030E081E090E0022E02C0880F991F0A9411
:100F2000E2F7809584238C9305C0198203C019824F
:100F300001C0198289812E960FB6F894DEBF0FBECC
:100F4000CDBFCF91DF910895DF93CF93CDB7DEB7BB
:100F50002E970FB6F894DEBF0FBECDBF8A836B838A
:100F60004C8381E089838B81883008F008C18A81B5
:100F7000282F30E03E872D878D859E858130910515
:100F800009F450C02D853E85223031052CF48D8525
:100F90009E85009771F0F1C02D853E852230310588
:100FA00009F479C08D859E858330910509F4ACC024
:100FB000E4C08C81282F30E03C872B878B859C8573
:100FC0000097C9F02B853C852130310549F5ABE30D
:100FD000B0E0EBE3F0E08081482F8B81282F30E0F8
:100FE00081E090E0022E02C0880F991F0A94E2F778
:100FF000842B8C93C5C0ABE3B0E0EBE3F0E08081E1
:10100000482F8B81282F30E081E090E0022E02C033
:10101000880F991F0A94E2F7809584238C93B0C0BF
:101020001982AEC08C81282F30E03A8729878985C4
:101030009A850097C9F029853A852130310549F50F
:10104000A8E3B0E0E8E3F0E08081482F8B81282F0F
:1010500030E081E090E0022E02C0880F991F0A94D0
:10106000E2F7842B8C938CC0A8E3B0E0E8E3F0E0D7
:101070008081482F8B81282F30E081E090E0022E84
:1010800002C0880F991F0A94E2F7809584238C93FD
:1010900077C0198275C08C81282F30E038872F8364
:1010A0008F8198850097C9F02F81388521303105CF
:1010B00049F5A5E3B0E0E5E3F0E08081482F8B81BE
:1010C000282F30E081E090E0022E02C0880F991FA7
:1010D0000A94E2F7842B8C9353C0A5E3B0E0E5E3D8
:1010E000F0E08081482F8B81282F30E081E090E074
:1010F000022E02C0880F991F0A94E2F7809584237C
:101100008C933EC019823CC08C81282F30E03E83F6
:101110002D838D819E810097C9F02D813E812130E4
:10112000310549F5A2E3B0E0E2E3F0E08081482F29
:101130008B81282F30E081E090E0022E02C0880FE2
:10114000991F0A94E2F7842B8C931AC0A2E3B0E0B3
:10115000E2E3F0E08081482F8B81282F30E081E0AE
:1011600090E0022E02C0880F991F0A94E2F7809542
:1011700084238C9305C0198203C0198201C019828F
:1011800089812E960FB6F894DEBF0FBECDBFCF91EA
:10119000DF910895DF93CF93CDB7DEB728970FB6D1
:1011A000F894DEBF0FBECDBF8B836C835E834D830F
:1011B00081E08A838B81843008F0A1C08C818830E3
:1011C00008F09DC08D819E81009709F498C08B81A5
:1011D000282F30E038872F834F81588541305105C3
:1011E000A9F18F8198858230910534F42F8138855B
:1011F0002115310571F081C04F815885423051056C
:1012000009F441C08F8198858330910509F458C055
:1012100074C0E9E3F0E08081282F30E08C81882FD2
:1012200090E0A90102C0559547958A95E2F7CA0159
:10123000817089838981882321F4ED81FE81108268
:101240005FC0ED81FE8181E080835AC0E6E3F0E07B
:101250008081282F30E08C81882F90E0A90102C086
:10126000559547958A95E2F7CA01817089838981EE
:10127000882321F4ED81FE81108242C0ED81FE8140
:1012800081E080833DC0E3E3F0E08081282F30E0FF
:101290008C81882F90E0A90102C0559547958A95C9
:1012A000E2F7CA01817089838981882321F4ED8165
:1012B000FE81108225C0ED81FE8181E0808320C007
:1012C000E0E3F0E08081282F30E08C81882F90E0EF
:1012D000A90102C0559547958A95E2F7CA01817028
:1012E00089838981882321F4ED81FE81108208C0E1
:1012F000ED81FE8181E0808303C01A8201C01A82E1
:101300008A8128960FB6F894DEBF0FBECDBFCF916D
:10131000DF910895DF93CF93CDB7DEB72D970FB64A
:10132000F894DEBF0FBECDBF8A836B8381E08983D3
:101330008B81813021F08B81882309F086C08A81DE
:10134000282F30E03D872C878C859D858130910545
:1013500079F12C853D85223031052CF48C859D85D5
:10136000009769F070C02C853D8522303105C9F1A8
:101370008C859D858330910509F44CC064C08B81B8
:10138000282F30E03B872A878A859B85009751F07C
:101390002A853B852130310549F4EAE3F0E08FEFFF
:1013A000808354C0EAE3F0E0108250C019824EC03E
:1013B0008B81282F30E03987288788859985009789
:1013C00051F0288539852130310549F4E7E3F0E013
:1013D0008FEF80833BC0E7E3F0E0108237C01982D3
:1013E00035C08B81282F30E03F832E838E819F81F3
:1013F000009751F02E813F812130310549F4E4E31B
:10140000F0E08FEF808322C0E4E3F0E010821EC0A2
:1014100019821CC08B81282F30E03D832C838C8166
:101420009D81009751F02C813D812130310549F497
:10143000E1E3F0E08FEF808309C0E1E3F0E01082A8
:1014400005C0198203C0198201C0198289812D96B5
:101450000FB6F894DEBF0FBECDBFCF91DF910895D8
:10146000DF93CF9300D000D00F92CDB7DEB78A8341
:101470006B8381E089838A81282F30E03D832C8330
:101480008C819D8181309105D1F02C813D8122306C
:1014900031052CF48C819D81009761F01FC02C8157
:1014A0003D812230310581F08C819D818330910511
:1014B00081F014C0EBE3F0E08B81808310C0E8E39F
:1014C000F0E08B8180830BC0E5E3F0E08B818083CB
:1014D00006C0E2E3F0E08B81808301C0198289813C
:1014E0000F900F900F900F900F90CF91DF91089574
:1014F000DF93CF9300D000D000D0CDB7DEB78A8382
:101500007C836B8381E089838B819C810097E9F1E7
:101510008A81282F30E03E832D838D819E8181300A
:101520009105E1F02D813E81223031052CF48D8131
:101530009E81009761F027C02D813E8122303105C8
:10154000A1F08D819E8183309105B1F01CC0E9E34B
:10155000F0E08081EB81FC81808318C0E6E3F0E05D
:101560008081EB81FC81808311C0E3E3F0E0808126
:10157000EB81FC8180830AC0E0E3F0E08081EB81B5
:10158000FC81808303C0198201C01982898126965B
:101590000FB6F894DEBF0FBECDBFCF91DF91089597
:1015A000DF93CF93CDB7DEB765970FB6F894DEBF64
:1015B0000FBECDBF9D8B8C8B81E08A8B1F868C8963
:1015C0009D89009709F4F0C0EC89FD898FEF808335
:1015D000198AE5C08989882F90E0FC01E65EFE4FFC
:1015E000908182E0692F40E00E94A407188AC1C060
:1015F0008889882F90E0FC01E25EFE4F90819E0179
:101600002D5E3F4F82E0692FA9010E94CA088B8995
:10161000882309F0ABC080E090E0A0EAB1E48B87BA
:101620009C87AD87BE876B857C858D859E8520E0F8
:1016300030E04AEF54E40E941F02DC01CB018F83AB
:101640009887A987BA876F81788589859A8520E0F0
:1016500030E040E85FE30E94250488232CF481E019
:1016600090E09E838D833FC06F81788589859A85C0
:1016700020E03FEF4FE757E40E94C50318164CF5F2
:101680006B857C858D859E8520E030E040E251E4CD
:101690000E941F02DC01CB01BC01CD010E94490068
:1016A000DC01CB019E838D830FC088EC90E09C838E
:1016B0008B838B819C810197F1F79C838B838D8138
:1016C0009E8101979E838D838D819E81009769F70E
:1016D00014C06F81788589859A850E944900DC0154
:1016E000CB019E838D838D819E819A83898389819D
:1016F0009A810197F1F79A8389838889882F90E0EE
:10170000FC01E25EFE4F90819E012D5E3F4F82E024
:10171000692FA9010E94CA080FC08889882F90E00C
:10172000FC01E25EFE4F90819E012D5E3F4F82E004
:10173000692FA9010E94CA088B89882371F38989BE
:10174000482F50E08889282F30E0CA01880F991F60
:10175000880F991F820F931FFC01E65FFE4F808167
:10176000EC89FD89808381E08F8707C088898F5F3E
:10177000888B8889843008F43BCF8989882F90E052
:10178000FC01E65EFE4F908182E0692F41E00E94FD
:10179000A4078F85813049F089898F5F898B89897A
:1017A000843008F417CF01C01A8A8A8965960FB66B
:1017B000F894DEBF0FBECDBFCF91DF9108950F9398
:1017C0001F93DF93CF93CDB7DEB7CA55D0400FB686
:1017D000F894DEBF0FBECDBF81E061E00E948A09B0
:1017E000FE01E95AFF4F80E090E0ACE0B2E4808374
:1017F0009183A283B3838E010D5A1F4FFE01E95AD4
:10180000FF4F608171818281938120E030E04AEF57
:1018100054E40E941F02DC01CB01F8018083918314
:10182000A283B383FE01ED5AFF4F608171818281F3
:10183000938120E030E040E85FE30E9425048823A4
:1018400044F4FE01EF5AFF4F81E090E091838083E2
:1018500064C0FE01ED5AFF4F6081718182819381E6
:1018600020E03FEF4FE757E40E94C50318160CF045
:1018700043C0FE01E95AFF4F6081718182819381EB
:1018800020E030E040E251E40E941F02DC01CB0185
:101890008E010F5A1F4FBC01CD010E944900DC018F
:1018A000CB01F801918380831FC0FE01E15BFF4FF4
:1018B00088EC90E091838083FE01E15BFF4F8081A3
:1018C00091810197F1F7FE01E15BFF4F91838083E6
:1018D000DE01AF5ABF4FFE01EF5AFF4F8081918169
:1018E000019711969C938E93FE01EF5AFF4F8081D2
:1018F00091810097D1F627C08E010F5A1F4FFE012C
:10190000ED5AFF4F60817181828193810E9449006D
:10191000DC01CB01F80191838083DE01A35BBF4F23
:10192000FE01EF5AFF4F808191818D939C93FE01C0
:10193000E35BFF4F808191810197F1F7FE01E35B4B
:10194000FF4F918380838CE30E94440FFE01E75B8D
:10195000FF4F80E090E0A0E2B2E480839183A28315
:10196000B3838E010B5B1F4FFE01E75BFF4F60816E
:101970007181828193812BEA3AEA4AE250E40E9423
:101980001F02DC01CB01F80180839183A283B38322
:10199000FE01EB5BFF4F608171818281938120E0CA
:1019A00030E040E85FE30E942504882334F4FE0120
:1019B000EC5BFF4F81E08083A7C0FE01EB5BFF4F34
:1019C000608171818281938120E030E04FE753E4B0
:1019D0000E94C50318160CF087C0FE01E75BFF4F9D
:1019E000608171818281938120E030E04AE754E494
:1019F0000E941903DC01CB01FE01E05CFF4F8083F4
:101A00009183A283B383FE01E05CFF4F608171810B
:101A10008281938120E030E04AEF54E40E941F026B
:101A2000DC01CB018CAF9DAFAEAFBFAF6CAD7DAD78
:101A30008EAD9FAD20E030E040E85FE30E942504DA
:101A400088232CF481E090E09BAF8AAF42C06CAD5C
:101A50007DAD8EAD9FAD20E03FEF4FE757E40E9494
:101A6000C503181664F5FE01E05CFF4F60817181CB
:101A70008281938120E030E040E251E40E941F0225
:101A8000DC01CB01BC01CD010E944900DC01CB018E
:101A90009BAF8AAF0FC088EC90E099AF88AF88AD5C
:101AA00099AD0197F1F799AF88AF8AAD9BAD0197DA
:101AB0009BAF8AAF8AAD9BAD009769F72EC06CAD26
:101AC0007DAD8EAD9FAD0E944900DC01CB019BAF87
:101AD0008AAF8AAD9BAD9FAB8EAB8EA99FA90197B4
:101AE000F1F79FAB8EAB19C08E010C5B1F4FFE014F
:101AF000EB5BFF4F60817181828193810E9449007D
:101B0000DC01CB01F8018083FE01EC5BFF4F80819B
:101B10008DAB8DA98A95F1F78DAB8FE00E94440FB4
:101B200080E090E0A0E2B2E489AB9AABABABBCAB97
:101B300069A97AA98BA99CA92BEA3AEA4AE250E45E
:101B40000E941F02DC01CB018DA79EA7AFA7B8ABF7
:101B50006DA57EA58FA598A920E030E040E85FE361
:101B60000E94250488231CF481E08CA791C06DA5F8
:101B70007EA58FA598A920E030E04FE753E40E94AE
:101B8000C50318160CF07BC069A97AA98BA99CA97A
:101B900020E030E04AE754E40E941903DC01CB0165
:101BA00088A799A7AAA7BBA768A579A58AA59BA579
:101BB00020E030E04AEF54E40E941F02DC01CB0138
:101BC0008CA39DA3AEA3BFA36CA17DA18EA19FA159
:101BD00020E030E040E85FE30E94250488232CF4F5
:101BE00081E090E09BA38AA33FC06CA17DA18EA160
:101BF0009FA120E03FEF4FE757E40E94C50318166E
:101C00004CF568A579A58AA59BA520E030E040E2C7
:101C100051E40E941F02DC01CB01BC01CD010E94F6
:101C20004900DC01CB019BA38AA30FC088EC90E0A4
:101C300099A388A388A199A10197F1F799A388A3F3
:101C40008AA19BA101979BA38AA38AA19BA100972C
:101C500069F724C06CA17DA18EA19FA10E944900BB
:101C6000DC01CB019BA38AA38AA19BA19F8F8E8FAE
:101C70008E8D9F8D0197F1F79F8F8E8F0FC06DA571
:101C80007EA58FA598A90E944900DC01CB018CA7F5
:101C90008CA58D8F8D8D8A95F1F78D8F81E00E94B7
:101CA000440F80E090E0A0E0B0E4898F9A8FAB8F82
:101CB000BC8F698D7A8D8B8D9C8D20E030E04AEF52
:101CC00054E40E941F02DC01CB018D8B9E8BAF8BF5
:101CD000B88F6D897E898F89988D20E030E040E84B
:101CE0005FE30E94250488232CF481E090E09C8B24
:101CF0008B8B3FC06D897E898F89988D20E03FEF67
:101D00004FE757E40E94C50318164CF5698D7A8D8C
:101D10008B8D9C8D20E030E040E251E40E941F0258
:101D2000DC01CB01BC01CD010E944900DC01CB01EB
:101D30009C8B8B8B0FC088EC90E09A8B898B898968
:101D40009A890197F1F79A8B898B8B899C890197E6
:101D50009C8B8B8B8B899C89009769F714C06D894C
:101D60007E898F89988D0E944900DC01CB019C8B74
:101D70008B8B8B899C89988B8F878F85988901970E
:101D8000F1F7988B8F8786E00E94440F80E090E007
:101D9000A0E0B0E48B879C87AD87BE876B857C8590
:101DA0008D859E8520E030E04AEF54E40E941F02BA
:101DB000DC01CB018F839887A987BA876F817885EB
:101DC00089859A8520E030E040E85FE30E942504A1
:101DD00088232CF481E090E09E838D833FC06F8147
:101DE000788589859A8520E03FEF4FE757E40E9488
:101DF000C50318164CF56B857C858D859E8520E086
:101E000030E040E251E40E941F02DC01CB01BC0142
:101E1000CD010E944900DC01CB019E838D830FC060
:101E200088EC90E09C838B838B819C810197F1F7F8
:101E30009C838B838D819E8101979E838D838D8171
:101E40009E81009769F714C06F81788589859A858E
:101E50000E944900DC01CB019E838D838D819E8190
:101E60009A83898389819A810197F1F79A8389837B
:101E7000C65ADF4F0FB6F894DEBF0FBECDBFCF916D
:101E8000DF911F910F910895DF93CF93CDB7DEB708
:101E900069970FB6F894DEBF0FBECDBF898F83E080
:101EA00067E040E00E94A40783E066E041E00E9412
:101EB000A40781E0698D0E94300A83E066E041E07A
:101EC0000E94A40780E090E0A0E0B0E48D8B9E8BA0
:101ED000AF8BB88F6D897E898F89988D2BEA3AEA0E
:101EE0004AE250E40E941F02DC01CB01898B9A8BED
:101EF000AB8BBC8B69897A898B899C8920E030E027
:101F000040E85FE30E94250488231CF481E0888B6D
:101F100091C069897A898B899C8920E030E04FE7FC
:101F200053E40E94C50318160CF07BC06D897E89AE
:101F30008F89988D20E030E04AE754E40E9419032D
:101F4000DC01CB018C879D87AE87BF876C857D8543
:101F50008E859F8520E030E04AEF54E40E941F0206
:101F6000DC01CB0188879987AA87BB87688579853B
:101F70008A859B8520E030E040E85FE30E942504ED
:101F800088232CF481E090E09F838E833FC0688596
:101F900079858A859B8520E03FEF4FE757E40E94D3
:101FA000C50318164CF56C857D858E859F8520E0D0
:101FB00030E040E251E40E941F02DC01CB01BC0191
:101FC000CD010E944900DC01CB019F838E830FC0AD
:101FD00088EC90E09D838C838C819D810197F1F743
:101FE0009D838C838E819F8101979F838E838E81B9
:101FF0009F81009769F724C0688579858A859B85CC
:102000000E944900DC01CB019F838E838E819F81DA
:102010009B838A838A819B810197F1F79B838A83C3
:102020000FC069897A898B899C890E944900DC01EB
:10203000CB01888B8889898389818A95F1F7898387
:1020400083E066E040E00E94A40769960FB6F8942A
:10205000DEBF0FBECDBFCF91DF910895DF93CF9349
:10206000CDB7DEB769970FB6F894DEBF0FBECDBF10
:10207000898F83E067E041E00E94A40783E066E087
:1020800041E00E94A40781E0698D0E94300A83E04C
:1020900066E041E00E94A40780E090E0A0E0B0E4A8
:1020A0008D8B9E8BAF8BB88F6D897E898F89988D34
:1020B0002BEA3AEA4AE250E40E941F02DC01CB011B
:1020C000898B9A8BAB8BBC8B69897A898B899C892C
:1020D00020E030E040E85FE30E94250488231CF400
:1020E00081E0888B91C069897A898B899C8920E0FD
:1020F00030E04FE753E40E94C50318160CF07BC094
:102100006D897E898F89988D20E030E04AE754E41C
:102110000E941903DC01CB018C879D87AE87BF87A6
:102120006C857D858E859F8520E030E04AEF54E404
:102130000E941F02DC01CB0188879987AA87BB8791
:10214000688579858A859B8520E030E040E85FE3FB
:102150000E94250488232CF481E090E09F838E83E5
:102160003FC0688579858A859B8520E03FEF4FE7F2
:1021700057E40E94C50318164CF56C857D858E8545
:102180009F8520E030E040E251E40E941F02DC0124
:10219000CB01BC01CD010E944900DC01CB019F8332
:1021A0008E830FC088EC90E09D838C838C819D8111
:1021B0000197F1F79D838C838E819F8101979F8387
:1021C0008E838E819F81009769F724C06885798509
:1021D0008A859B850E944900DC01CB019F838E8309
:1021E0008E819F819B838A838A819B810197F1F7EE
:1021F0009B838A830FC069897A898B899C890E9415
:102200004900DC01CB01888B8889898389818A9583
:10221000F1F7898383E066E040E00E94A4076996B5
:102220000FB6F894DEBF0FBECDBFCF91DF910895FA
:10223000DF93CF9300D00F92CDB7DEB79B838A8315
:1022400019820EC08981282F30E08A819B81FC0190
:10225000E20FF31F80810E942E1089818F5F898396
:102260008981282F30E08A819B81FC01E20FF31FD6
:102270008081882339F70F900F900F90CF91DF91D5
:102280000895DF93CF9300D0CDB7DEB789836A83FB
:102290008981813041F48A81803128F48A81815892
:1022A0000E94440F0AC08981823039F48A818031CA
:1022B00020F48A8181540E94440F0F900F90CF9197
:1022C000DF910895DF93CF93CDB7DEB781E00E9411
:1022D000440FCF91DF910895DF93CF9300D000D0CA
:1022E000CDB7DEB79A8389837C836B8389819A819A
:1022F0002B813C81B9014AE050E00E94171E0F90EB
:102300000F900F900F90CF91DF910895DF93CF93AF
:10231000CDB7DEB727970FB6F894DEBF0FBECDBF9F
:102320009C838B836D834E832F838D81882F90E0D8
:10233000880F991F880F991F880F991F8A838A8198
:10234000805C0E94440F19820EC08981282F30E0E2
:102350008B819C81FC01E20FF31F80810E942E1073
:1023600089818F5F89838981883078F38E816F813D
:102370000E9441118D810E942E1027960FB6F8946D
:10238000DEBF0FBECDBFCF91DF910895DF93CF9316
:10239000CDB7DEB762970FB6F894DEBF0FBECDBFE4
:1023A0006C877D878E879F8719828C859D85AE85FA
:1023B000BF850097A105B10509F04EC080E30E94DA
:1023C0002E106AC08981282F332727FD30953A8B3C
:1023D000298B8C859D85AE85BF852AE030E040E065
:1023E00050E0BC01CD010E94BE1DDC01CB01009775
:1023F000A105B10591F08C859D85AE85BF852AE04C
:1024000030E040E050E0BC01CD010E94BE1DDC0187
:10241000CB01382F305D388B02C080E3888BCE0132
:102420000296E989FA89E80FF91F988990838981D2
:102430008F5F89838C859D85AE85BF852AE030E0DE
:1024400040E050E0BC01CD010E94BE1DDA01C9018F
:102450008C879D87AE87BF878C859D85AE85BF8520
:102460000097A105B10509F0ADCF8981815089831D
:1024700010C08981282F332727FD3095CE01029681
:10248000FC01E20FF31F80810E942E108981815090
:102490008983898188236CF762960FB6F894DEBF32
:1024A0000FBECDBFCF91DF910895DF93CF930F92F1
:1024B000CDB7DEB789838981882F90E0FC01E05099
:1024C000FF4F908180E0692F0E94300A0F90CF91DA
:1024D000DF910895DF93CF93CDB7DEB7AFE5B0E0DE
:1024E000EFE5F0E0808180688C93CF91DF910895D3
:1024F000DF93CF93CDB7DEB7AFE5B0E0EFE5F0E027
:1025000080818F778C93CF91DF910895DF93CF9364
:10251000CDB7DEB7A8970FB6F894DEBF0FBECDBF1C
:102520008FEF8D8FCE014E969DA38CA3E2E2F1E05A
:10253000FFA3EEA3F6E0F8A7EEA1FFA100808EA115
:102540009FA101969FA38EA3ECA1FDA100828CA167
:102550009DA101969DA38CA398A5915098A7E8A54D
:10256000EE2351F70E944F060E946A120E948E1BB2
:102570008CEE93E10E94331C0E94DF0B0E946211DB
:1025800080E690E00E94181182E061E00E94411113
:102590008FE690E00E941811CE014D960E94D00A5D
:1025A0008D8D8F3F09F415C18D8D893391F4CE0146
:1025B0004E9666E00E940E1888E291E02AE231E031
:1025C00049E251E0FE017E96B9019F010E94211B64
:1025D00000C10E94621181E060E00E9441118FE71A
:1025E00090E00E94181180E090E0A8ECB2E4898F9E
:1025F0009A8FAB8FBC8F698D7A8D8B8D9C8D20E0EF
:1026000030E04AEF54E40E941F02DC01CB018D8BC5
:102610009E8BAF8BB88F6D897E898F89988D20E0D6
:1026200030E040E85FE30E94250488232CF481E039
:1026300090E09C8B8B8B3FC06D897E898F89988DB4
:1026400020E03FEF4FE757E40E94C50318164CF512
:10265000698D7A8D8B8D9C8D20E030E040E251E4D5
:102660000E941F02DC01CB01BC01CD010E94490088
:10267000DC01CB019C8B8B8B0FC088EC90E09A8B9C
:10268000898B89899A890197F1F79A8B898B8B8934
:102690009C8901979C8B8B8B8B899C89009769F710
:1026A00014C06D897E898F89988D0E944900DC0154
:1026B000CB019C8B8B8B8B899C89988B8F878F858B
:1026C00098890197F1F7988B8F870E94621181E0BA
:1026D00060E00E9441118CE890E00E94181182E0B5
:1026E00060E00E94411189E990E00E94181180E0A9
:1026F00090E0A8ECB2E48B879C87AD87BE876B85A2
:102700007C858D859E8520E030E04AEF54E40E9470
:102710001F02DC01CB018F839887A987BA876F815D
:10272000788589859A8520E030E040E85FE30E9463
:10273000250488232CF481E090E09E838D833FC0A4
:102740006F81788589859A8520E03FEF4FE757E4D0
:102750000E94C50318164CF56B857C858D859E857A
:1027600020E030E040E251E40E941F02DC01CB0196
:10277000BC01CD010E944900DC01CB019E838D8309
:102780000FC088EC90E09C838B838B819C810197A8
:10279000F1F79C838B838D819E8101979E838D832E
:1027A0008D819E81009769F714C06F817885898536
:1027B0009A850E944900DC01CB019E838D838D8127
:1027C0009E819A83898389819A810197F1F79A83FF
:1027D00089830E94F813E0CEDF93CF93CDB7DEB7A5
:1027E000809128018F5F80932801CF91DF91089518
:1027F0000F931F93DF93CF93CDB7DEB7C455D0406F
:102800000FB6F894DEBF0FBECDBF83E061E040E0BD
:102810000E94A40783E062E040E00E94A40783E0F6
:1028200063E040E00E94A40783E064E040E00E948F
:10283000A40783E065E040E00E94A40783E060E035
:1028400041E00E94A407809128019AE0692F0E942C
:10285000B21D892F0E945512FE01EF5AFF4F80E0F2
:1028600090E0A0EEB0E480839183A283B3838E01D5
:10287000035B1F4FFE01EF5AFF4F60817181828120
:10288000938120E030E04AEF54E40E941F02DC0113
:10289000CB01F80180839183A283B383FE01E35BC4
:1028A000FF4F608171818281938120E030E040E8B8
:1028B0005FE30E942504882344F4FE01E55BFF4F9B
:1028C00081E090E09183808364C0FE01E35BFF4F71
:1028D000608171818281938120E03FEF4FE757E46F
:1028E0000E94C50318160CF043C0FE01EF5AFF4FBB
:1028F000608171818281938120E030E040E251E487
:102900000E941F02DC01CB018E01055B1F4FBC0141
:10291000CD010E944900DC01CB01F8019183808345
:102920001FC0FE01E75BFF4F88EC90E0918380833E
:10293000FE01E75BFF4F808191810197F1F7FE0176
:10294000E75BFF4F91838083DE01A55BBF4FFE01F4
:10295000E55BFF4F80819181019711969C938E9347
:10296000FE01E55BFF4F808191810097D1F627C082
:102970008E01055B1F4FFE01E35BFF4F608171819C
:10298000828193810E944900DC01CB01F80191838F
:102990008083DE01A95BBF4FFE01E55BFF4F8081B5
:1029A00091818D939C93FE01E95BFF4F8081918122
:1029B0000197F1F7FE01E95BFF4F9183808383E08C
:1029C00060E040E00E94A40783E062E040E00E94F3
:1029D000A40783E063E040E00E94A40783E064E092
:1029E00040E00E94A40783E065E040E00E94A40765
:1029F00083E061E041E00E94A407809128019AE011
:102A0000692F0E94B21D0E945512FE01ED5BFF4F1F
:102A100080E090E0A0EEB0E480839183A283B38352
:102A20008E01015C1F4FFE01ED5BFF4F60817181E4
:102A30008281938120E030E04AEF54E40E941F023B
:102A4000DC01CB01F80180839183A283B383FE0173
:102A5000FF96608171818281938120E030E040E8BF
:102A60005FE30E94250488232CF481E090E09EAF70
:102A70008DAF46C0FE01FF96608171818281938196
:102A800020E03FEF4FE757E40E94C503181664F5B6
:102A9000FE01ED5BFF4F608171818281938120E0B7
:102AA00030E040E251E40E941F02DC01CB01BC0196
:102AB000CD010E944900DC01CB019EAF8DAF0FC05C
:102AC00088EC90E09CAF8BAF8BAD9CAD0197F1F79C
:102AD0009CAF8BAF8DAD9EAD01979EAF8DAF8DAD91
:102AE0009EAD009769F716C0FE01FF966081718167
:102AF000828193810E944900DC01CB019EAF8DAFA2
:102B00008DAD9EAD9AAF89AF89AD9AAD0197F1F7C2
:102B10009AAF89AF83E061E040E00E94A40783E0C0
:102B200060E040E00E94A40783E063E040E00E9490
:102B3000A40783E064E040E00E94A40783E065E02E
:102B400040E00E94A40783E062E041E00E94A40705
:102B500080912A019AE0692F0E94B21D892F0E945C
:102B6000551280E090E0A0EEB0E48DAB9EABAFAB31
:102B7000B8AF6DA97EA98FA998AD20E030E04AEFEB
:102B800054E40E941F02DC01CB0189AB9AABABABD2
:102B9000BCAB69A97AA98BA99CA920E030E040E8E8
:102BA0005FE30E94250488232CF481E090E098AB39
:102BB0008FA73FC069A97AA98BA99CA920E03FEF04
:102BC0004FE757E40E94C50318164CF56DA97EA97E
:102BD0008FA998AD20E030E040E251E40E941F024E
:102BE000DC01CB01BC01CD010E944900DC01CB011D
:102BF00098AB8FA70FC088EC90E09EA78DA78DA5FE
:102C00009EA50197F1F79EA78DA78FA598A901977B
:102C100098AB8FA78FA598A9009769F714C069A9E9
:102C20007AA98BA99CA90E944900DC01CB0198AB31
:102C30008FA78FA598A99CA78BA78BA59CA501976B
:102C4000F1F79CA78BA783E062E040E00E94A40715
:102C500083E060E040E00E94A40783E061E040E0A0
:102C60000E94A40783E064E040E00E94A40783E0A0
:102C700065E040E00E94A40783E063E041E00E9439
:102C8000A40780912A019AE0692F0E94B21D0E9438
:102C9000551280E090E0A0EEB0E48FA398A7A9A71A
:102CA000BAA76FA178A589A59AA520E030E04AEFE0
:102CB00054E40E941F02DC01CB018BA39CA3ADA3B3
:102CC000BEA36BA17CA18DA19EA120E030E040E8D5
:102CD0005FE30E94250488232CF481E090E09AA30E
:102CE00089A33FC06BA17CA18DA19EA120E03FEFF5
:102CF0004FE757E40E94C50318164CF56FA178A55D
:102D000089A59AA520E030E040E251E40E941F022C
:102D1000DC01CB01BC01CD010E944900DC01CB01EB
:102D20009AA389A30FC088EC90E098A38F8F8F8D12
:102D300098A10197F1F798A38F8F89A19AA1019784
:102D40009AA389A389A19AA1009769F714C06BA1DE
:102D50007CA18DA19EA10E944900DC01CB019AA318
:102D600089A389A19AA19E8F8D8F8D8D9E8D0197AC
:102D7000F1F79E8F8D8F83E063E040E00E94A4070F
:102D800083E060E040E00E94A40783E061E040E06F
:102D90000E94A40783E062E040E00E94A40783E071
:102DA00065E040E00E94A40783E064E041E00E9407
:102DB000A407809129019AE0692F0E94B21D892FF2
:102DC0000E94551280E090E0A0EEB0E4898F9A8FC7
:102DD000AB8FBC8F698D7A8D8B8D9C8D20E030E020
:102DE0004AEF54E40E941F02DC01CB018D8B9E8BC5
:102DF000AF8BB88F6D897E898F89988D20E030E008
:102E000040E85FE30E94250488232CF481E090E0F1
:102E10009C8B8B8B3FC06D897E898F89988D20E03C
:102E20003FEF4FE757E40E94C50318164CF5698D34
:102E30007A8D8B8D9C8D20E030E040E251E40E9441
:102E40001F02DC01CB01BC01CD010E944900DC0165
:102E5000CB019C8B8B8B0FC088EC90E09A8B898B7D
:102E600089899A890197F1F79A8B898B8B899C893B
:102E700001979C8B8B8B8B899C89009769F714C079
:102E80006D897E898F89988D0E944900DC01CB0174
:102E90009C8B8B8B8B899C89988B8F878F8598894E
:102EA0000197F1F7988B8F8783E064E040E00E9400
:102EB000A40783E060E040E00E94A40783E061E0B3
:102EC00040E00E94A40783E062E040E00E94A40783
:102ED00083E063E040E00E94A40783E065E041E016
:102EE0000E94A407809129019AE0692F0E94B21DD7
:102EF0000E94551280E090E0A0EEB0E48B879C87A2
:102F0000AD87BE876B857C858D859E8520E030E012
:102F10004AEF54E40E941F02DC01CB018F839887A3
:102F2000A987BA876F81788589859A8520E030E006
:102F300040E85FE30E94250488232CF481E090E0C0
:102F40009E838D833FC06F81788589859A8520E037
:102F50003FEF4FE757E40E94C50318164CF56B8509
:102F60007C858D859E8520E030E040E251E40E9422
:102F70001F02DC01CB01BC01CD010E944900DC0134
:102F8000CB019E838D830FC088EC90E09C838B8364
:102F90008B819C810197F1F79C838B838D819E812E
:102FA00001979E838D838D819E81009769F714C060
:102FB0006F81788589859A850E944900DC01CB0163
:102FC0009E838D838D819E819A83898389819A8155
:102FD0000197F1F79A838983809128018C3339F422
:102FE0001092280180912A018F5F80932A0180919D
:102FF0002A018C3339F410922A01809129018F5FC4
:1030000080932901CC5ADF4F0FB6F894DEBF0FBE74
:10301000CDBFCF91DF911F910F9108950F931F9313
:10302000DF93CF93CDB7DEB7CB54D0400FB6F89433
:10303000DEBF0FBECDBFFE01E75BFF4F91838083F4
:10304000FE01E55BFF4F6083FE01E95BFF4F1082ED
:10305000FE01E85BFF4F8FEF80830E94621188EAD8
:1030600090E00E941811FE01ED5BFF4F80E090E0C0
:10307000A6E9B3E480839183A283B3838E01015CCC
:103080001F4FFE01ED5BFF4F608171818281938153
:1030900020E030E04AEF54E40E941F02DC01CB0143
:1030A000F80180839183A283B383FE01FF96608140
:1030B00071818281938120E030E040E85FE30E94EB
:1030C000250488232CF481E090E09EAF8DAF46C0AC
:1030D000FE01FF96608171818281938120E03FEF44
:1030E0004FE757E40E94C503181664F5FE01ED5B37
:1030F000FF4F608171818281938120E030E040E266
:1031000051E40E941F02DC01CB01BC01CD010E94F1
:103110004900DC01CB019EAF8DAF0FC088EC90E081
:103120009CAF8BAF8BAD9CAD0197F1F79CAF8BAF94
:103130008DAD9EAD01979EAF8DAF8DAD9EAD0097CD
:1031400069F768C2FE01FF96608171818281938177
:103150000E944900DC01CB019EAF8DAF8DAD9EADCD
:103160009AAF89AF89AD9AAD0197F1F79AAF89AF60
:1031700051C2CE01885B9F4F0E94D00AFE01E85BDE
:10318000FF4F80818F3FA9F3FE01E85BFF4F8081F5
:103190008F3F51F1FE01E85BFF4F8081813421F1C7
:1031A000FE01E95BFF4F8081282F30E0FE01E75BE5
:1031B000FF4F80819181DC01A20FB31FFE01E85B0C
:1031C000FF4F80818C93FE01E95BFF4F8081282FA8
:1031D00030E0FE01E75BFF4F80819181FC01E20F4F
:1031E000F31F80810E942E10FE01E95BFF4F80815A
:1031F000813009F078C00E94621186EB90E00E9455
:10320000181180E090E0A6E9B3E48DAB9EABAFABC4
:10321000B8AF6DA97EA98FA998AD20E030E04AEF44
:1032200054E40E941F02DC01CB0189AB9AABABAB2B
:10323000BCAB69A97AA98BA99CA920E030E040E841
:103240005FE30E94250488232CF481E090E098AB92
:103250008FA73FC069A97AA98BA99CA920E03FEF5D
:103260004FE757E40E94C50318164CF56DA97EA9D7
:103270008FA998AD20E030E040E251E40E941F02A7
:10328000DC01CB01BC01CD010E944900DC01CB0176
:1032900098AB8FA70FC088EC90E09EA78DA78DA557
:1032A0009EA50197F1F79EA78DA78FA598A90197D5
:1032B00098AB8FA78FA598A9009769F714C069A943
:1032C0007AA98BA99CA90E944900DC01CB0198AB8B
:1032D0008FA78FA598A99CA78BA78BA59CA50197C5
:1032E000F1F79CA78BA7FE01E95BFF4F808183303C
:1032F00009F078C00E94621186EC90E00E941811DB
:1033000080E090E0A6E9B3E48FA398A7A9A7BAA7A5
:103310006FA178A589A59AA520E030E04AEF54E492
:103320000E941F02DC01CB018BA39CA3ADA3BEA313
:103330006BA17CA18DA19EA120E030E040E85FE37D
:103340000E94250488232CF481E090E09AA389A3AD
:103350003FC06BA17CA18DA19EA120E03FEF4FE774
:1033600057E40E94C50318164CF56FA178A589A5EE
:103370009AA520E030E040E251E40E941F02DC0107
:10338000CB01BC01CD010E944900DC01CB019AA315
:1033900089A30FC088EC90E098A38F8F8F8D98A1A0
:1033A0000197F1F798A38F8F89A19AA101979AA30A
:1033B00089A389A19AA1009769F714C06BA17CA188
:1033C0008DA19EA10E944900DC01CB019AA389A393
:1033D00089A19AA19E8F8D8F8D8D9E8D0197F1F77A
:1033E0009E8F8D8FFE01E95BFF4F8081853009F054
:1033F00080C00E94621185ED90E00E94181182E069
:1034000060E00E94411186EE90E00E94181180E079
:1034100090E0A6E9B3E4898F9A8FAB8FBC8F698D5A
:103420007A8D8B8D9C8D20E030E04AEF54E40E9431
:103430001F02DC01CB018D8B9E8BAF8BB88F6D890A
:103440007E898F89988D20E030E040E85FE30E941C
:10345000250488232CF481E090E09C8B8B8B3FC06B
:103460006D897E898F89988D20E03FEF4FE757E483
:103470000E94C50318164CF5698D7A8D8B8D9C8D35
:1034800020E030E040E251E40E941F02DC01CB0169
:10349000BC01CD010E944900DC01CB019C8B8B8BD0
:1034A0000FC088EC90E09A8B898B89899A89019763
:1034B000F1F79A8B898B8B899C8901979C8B8B8BDD
:1034C0008B899C89009769F714C06D897E898F89E3
:1034D000988D0E944900DC01CB019C8B8B8B8B89E2
:1034E0009C89988B8F878F8598890197F1F7988BA6
:1034F0008F87FE01E85BFF4F8081813409F081C036
:103500000E9462118CE890E00E94181182E060E055
:103510000E94411189E990E00E94181180E090E03A
:10352000A6E9B3E48B879C87AD87BE876B857C85D6
:103530008D859E8520E030E04AEF54E40E941F0212
:10354000DC01CB018F839887A987BA876F81788543
:1035500089859A8520E030E040E85FE30E942504F9
:1035600088232CF481E090E09E838D833FC06F819F
:10357000788589859A8520E03FEF4FE757E40E94E0
:10358000C50318164CF56B857C858D859E8520E0DE
:1035900030E040E251E40E941F02DC01CB01BC019B
:1035A000CD010E944900DC01CB019E838D830FC0B9
:1035B00088EC90E09C838B838B819C810197F1F751
:1035C0009C838B838D819E8101979E838D838D81CA
:1035D0009E81009769F729C06F81788589859A85D2
:1035E0000E944900DC01CB019E838D838D819E81E9
:1035F0009A83898389819A810197F1F79A838983D4
:1036000014C0DE01A95BBF4FFE01E95BFF4F808163
:103610008F5F8C93FE01E95BFF4FDE01A55BBF4F1F
:1036200090818C91891708F0A4CDC55BDF4F0FB650
:10363000F894DEBF0FBECDBFCF91DF911F910F91E8
:103640000895DF93CF93CDB7DEB728970FB6F894E0
:10365000DEBF0FBECDBF9A8389837C836B835E837D
:103660004D8338872F83EF81F8858081882F90E004
:103670009C01220F331FC901880F991F880F991FC2
:10368000820F931F282F8F819885FC0131968081AE
:10369000820F8051ED81FE8180838F819885FC01AE
:1036A00032968081882F90E09C01220F331FC90140
:1036B000880F991F880F991F820F931F282F8F81C2
:1036C0009885FC0133968081820F8051EB81FC81CB
:1036D00080838F819885FC0134968081882F90E0CB
:1036E0009C01220F331FC901880F991F880F991F52
:1036F000820F931F282F8F819885FC01359680813A
:10370000820F8051E981FA81808328960FB6F89460
:10371000DEBF0FBECDBFCF91DF910895DF93CF9372
:10372000CDB7DEB7A3E5B0E0E3E5F0E080818F7BC5
:103730008C93A3E5B0E0E3E5F0E0808188608C93B2
:10374000A3E5B0E0E3E5F0E080818F7E8C93A3E514
:10375000B0E0E3E5F0E080818F7D8C93A9E5B0E0F7
:10376000E9E5F0E0808182608C93ECE5F0E083E6AF
:103770008083A3E5B0E0E3E5F0E08081887F8C936F
:10378000A3E5B0E0E3E5F0E0808182608C93CF9127
:10379000DF910895DF93CF9300D00F92CDB7DEB7BE
:1037A0009B838A8381E089838A819B81009739F09A
:1037B0008A819B8190932C0180932B0101C01982F7
:1037C00089810F900F900F90CF91DF9108951F92F4
:1037D0000F920FB60F9211242F933F934F935F9345
:1037E0006F937F938F939F93AF93BF93EF93FF93C9
:1037F000DF93CF93CDB7DEB7809131019091320145
:103800000196909332018093310180913101909122
:1038100032012FE08334920799F410923201109212
:103820003101E2E5F0E080EC808380912B01909102
:103830002C01009729F0E0912B01F0912C010995C2
:10384000CF91DF91FF91EF91BF91AF919F918F91B8
:103850007F916F915F914F913F912F910F900FBE8C
:103860000F901F901895DF93CF9300D00F92CDB794
:10387000DEB79B838A8381E089838A819B8100975D
:1038800039F08A819B8190932E0180932D0101C094
:10389000198289810F900F900F90CF91DF91089539
:1038A0001F920F920FB60F9211242F933F934F93B5
:1038B0005F936F937F938F939F93AF93BF93EF9398
:1038C000FF93DF93CF93CDB7DEB780913301909113
:1038D0003401019690933401809333018091330138
:1038E0009091340127E28031920779F410923401EB
:1038F0001092330180912D0190912E01009729F0B3
:10390000E0912D01F0912E010995CF91DF91FF916A
:10391000EF91BF91AF919F918F917F916F915F9147
:103920004F913F912F910F900FBE0F901F901895C0
:10393000DF93CF93CDB7DEB7AFE4B0E0EFE4F0E0D4
:1039400080818E7F8C93AFE4B0E0EFE4F0E0808183
:103950008D7F8C93AEE4B0E0EEE4F0E08081877F71
:103960008C93AEE4B0E0EEE4F0E080818F7E8C9347
:10397000AEE4B0E0EEE4F0E080818E7F8C93AEE4C4
:10398000B0E0EEE4F0E0808182608C93AEE4B0E0E1
:10399000EEE4F0E080818B7F8C93CF91DF910895EE
:1039A000DF93CF930F92CDB7DEB78983ECE5F0E0DC
:1039B000898180830F90CF91DF910895DF93CF931A
:1039C00000D0CDB7DEB79A838983EAE4F0E089813D
:1039D0009A81918380830F900F90CF91DF9108950A
:1039E000DF93CF9300D0CDB7DEB79A838983E8E425
:1039F000F0E089819A81918380830F900F90CF911D
:103A0000DF910895DF93CF9300D0CDB7DEB79A83CF
:103A10008983E6E4F0E089819A81918380830F9025
:103A20000F90CF91DF910895DF93CF93CDB7DEB79D
:103A3000AEE4B0E0EEE4F0E0808180648C93A9E530
:103A4000B0E0E9E5F0E0808180628C93CF91DF9176
:103A50000895DF93CF9300D00F92CDB7DEB789835F
:103A60008981282F30E03B832A838A819B810097BC
:103A700031F02A813B812130310549F00FC0AEE49D
:103A8000B0E0EEE4F0E0808180648C9307C0AEE4A7
:103A9000B0E0EEE4F0E080818F7B8C930F900F908C
:103AA0000F90CF91DF910895DF93CF93CDB7DEB71D
:103AB000E6E4F0E080819181CF91DF910895DF937A
:103AC000CF93CDB7DEB7A9E5B0E0E9E5F0E08081BE
:103AD0008F7D8C93CF91DF910895DF93CF9300D0AA
:103AE000CDB7DEB79A83898389819A81909330011B
:103AF00080932F010F900F90CF91DF9108951F9227
:103B00000F920FB60F9211242F933F934F935F9311
:103B10006F937F938F939F93AF93BF93EF93FF9395
:103B2000DF93CF93CDB7DEB780912F019091300115
:103B3000009729F0E0912F01F09130010995CF9184
:103B4000DF91FF91EF91BF91AF919F918F917F9105
:103B50006F915F914F913F912F910F900FBE0F90FA
:103B60001F901895991B79E004C0991F961708F0CB
:103B7000961B881F7A95C9F780950895A1E21A2EA1
:103B8000AA1BBB1BFD010DC0AA1FBB1FEE1FFF1F01
:103B9000A217B307E407F50720F0A21BB30BE40B51
:103BA000F50B661F771F881F991F1A9469F7609598
:103BB0007095809590959B01AC01BD01CF01089552
:103BC0002F923F924F925F926F927F928F929F922D
:103BD000AF92BF92CF92DF92EF92FF920F931F931B
:103BE000CF93DF93CDB7DEB7CA1BDB0B0FB6F894CC
:103BF000DEBF0FBECDBF09942A88398848885F840C
:103C00006E847D848C849B84AA84B984C884DF807C
:103C1000EE80FD800C811B81AA81B981CE0FD11D60
:103C20000FB6F894DEBF0FBECDBFED010895FB01C6
:103C30009F01E8944230C4F04532B4F44A3029F48C
:103C400097FB1EF4909581959F4F642F77270E94D4
:103C5000481E805D8A330CF0895D8193CB0100970B
:103C6000A1F716F45DE251931082C9010C94381E3D
:103C7000DC01FC01672F71917723E1F7329704C0D3
:103C80007C916D9370836291AE17BF07C8F308955E
:103C9000AA1BBB1B51E107C0AA1FBB1FA617B70772
:103CA00010F0A61BB70B881F991F5A95A9F780958E
:0C3CB0009095BC01CD010895F894FFCF61
:103CBC0020544F2053455420434C4F434B2000205D
:103CCC0050524553534544202D2D2D3E203900573D
:103CDC004F524E472043484F49455300544F2053B1
:103CEC00455420434C4F434B00505245535345448D
:103CFC00202D2D2D3E20390020456E7465722048F4
:103D0C006F7572733D0020456E746572204D696E3F
:103D1C00757465733D0020456E7465722053656340
:103D2C006F6E643D0020202020207468616E6B2033
:103D3C00796F752020002020202020746F2073655F
:103D4C007474696E67202000000000000000000001
:103D5C00C0F9A4B0999282F880903738392F343555
:103D6C00362A3132332D41303D2B0001020304053C
:083D7C00060723232323232360
:00000001FF
