:100000000C942A000C9447000C9447000C94470071
:100010000C9447000C9447000C94A8060C944700DD
:100020000C9447000C9447000C942D060C94E805A2
:100030000C9447000C9447000C9447000C94470024
:100040000C9447000C9447000C9447000C94470014
:100050000C94470011241FBECFE5D8E0DEBFCDBF12
:1000600011E0A0E6B0E0ECE8FEE002C005900D92E1
:10007000A630B107D9F711E0A6E0B1E001C01D92AA
:10008000A331B107E1F70E9443050C9444070C9497
:1000900000009FEF9ABB97BB8FE084BB91BB1BBA5C
:1000A00018BA95BB12BA0895843008F080C0683041
:1000B00008F07DC0423008F07AC0813029F18130EB
:1000C00038F0823009F43CC0833009F070C053C06E
:1000D000442371F0413009F06AC02AB381E090E016
:1000E00002C0880F991F6A95E2F7282B2ABB5DC0D2
:1000F0002AB381E090E002C0880F991F6A95E2F769
:10010000809582238ABB51C0442371F0413009F0AD
:100110004EC027B381E090E002C0880F991F6A9516
:10012000E2F7282B27BB41C027B381E090E002C053
:10013000880F991F6A95E2F78095822387BB35C0A7
:10014000442369F0413099F524B381E090E002C086
:10015000880F991F6A95E2F7282B24BB26C024B389
:1001600081E090E002C0880F991F6A95E2F78095C0
:10017000822384BB1AC0442369F04130C1F421B307
:1001800081E090E002C0880F991F6A95E2F7282B62
:1001900021BB0BC021B381E090E002C0880F991F02
:1001A0006A95E2F78095822381BB81E0089580E023
:1001B0000895683008F07AC0813029F1813038F034
:1001C000823009F43CC0833009F070C053C044232E
:1001D00071F0413009F06AC02BB381E090E002C0B9
:1001E000880F991F6A95E2F7282B2BBB5DC02BB3B4
:1001F00081E090E002C0880F991F6A95E2F7809530
:1002000082238BBB51C0442371F0413009F04EC0B2
:1002100028B381E090E002C0880F991F6A95E2F749
:10022000282B28BB41C028B381E090E002C0880F92
:10023000991F6A95E2F78095822388BB35C04423D5
:1002400069F0413099F525B381E090E002C0880F54
:10025000991F6A95E2F7282B25BB26C025B381E0BC
:1002600090E002C0880F991F6A95E2F7809582237B
:1002700085BB1AC0442369F04130C1F422B381E048
:1002800090E002C0880F991F6A95E2F7282B22BBE5
:100290000BC022B381E090E002C0880F991F6A95DD
:1002A000E2F78095822382BB81E0089580E0089583
:1002B000282FFA01843060F5683050F5411551055A
:1002C00039F1813049F0813028F0823089F0833073
:1002D000F9F410C089B30FC086B390E002C09595C1
:1002E00087956A95E2F780FF0EC0208381E008952C
:1002F00083B301C080B390E002C0959587956A955D
:10030000E2F780FD02C01082F1CF81E08083089582
:1003100080E00895623070F5813081F0813028F0FE
:100320008230A9F0833031F51BC0662329F061309B
:1003300009F58FEF8ABB1CC01ABA1AC0662329F0D0
:100340006130C1F48FEF87BB13C017BA11C06623A9
:1003500029F0613079F48FEF84BB0AC014BA08C069
:10036000662329F0613031F48FEF81BB01C011BAEF
:1003700081E0089580E00895813051F0813030F0BF
:10038000823041F0833049F080E008956BBB03C0B8
:1003900068BB01C065BB81E0089562BB81E0089540
:1003A000FB016115710599F0813049F0813028F029
:1003B000823039F0833059F406C089B305C086B362
:1003C00003C083B301C080B3808381E0089580E0DF
:1003D00008954F925F926F927F928F929F92BF92F9
:1003E000CF92DF92EF92FF920F931F93DF93CF9301
:1003F0000F92CDB7DEB74C01009711F480E077C0C3
:100400008FEFF40180836DEEC62E60E0D62E10E0F3
:10041000EE24FF243E010894611C711C50E4452E1B
:100420005CE9552E82E0F601608140E00E94D9002F
:1004300044E0B42E82E064E0A3010E945801898167
:10044000882319F400E010E026C035E0B32E82E0E6
:1004500065E0A3010E9458018981882319F401E015
:1004600010E019C026E0B22E82E066E0A3010E94EF
:1004700058018981882319F402E010E00CC097E04C
:10048000B92E82E067E0A3010E9458018981882388
:10049000D1F403E010E0C2010197F1F782E06B2D87
:1004A000A3010E94580189818823C1F3F701EE0F4F
:1004B000FF1FEE0FFF1FE00FF11FE352FF4F808180
:1004C000F401808311E082E0F601608141E00E9446
:1004D000D900113059F00894E11CF11C0894C11C9A
:1004E000D11CF4E0EF16F10409F09CCF81E00F90ED
:1004F000CF91DF911F910F91FF90EF90DF90CF9000
:10050000BF909F908F907F906F905F904F900895D5
:100510004AE050E00E94FF0608951F93182F83E0E1
:1005200067E041E00E94D90083E066E041E00E947C
:10053000D90081E0612F0E94BC0183E066E041E0C8
:100540000E94D90085E08A95F1F783E066E040E0FB
:100550000E94D9001F910895AF92BF92DF92EF924F
:10056000FF920F931F93DF93CF93CDB7DEB72A97F8
:100570000FB6F894DEBF0FBECDBF7B018C016115B5
:1005800071058105910521F480E30E948D0244C02C
:100590005E010894A11CB11CDD24C801B7012AE04A
:1005A00030E040E050E00E94DD069B01AC012115E7
:1005B00031054105510511F460E301C0605DF501AD
:1005C00061935F01D394C801B7012AE030E040E0B5
:1005D00050E00E94DD06C901DA017C018D01E114C1
:1005E000F10401051105C9F6DA948D2D992787FDCF
:1005F0009095D3948E010F5F1F4F080F191F78013C
:10060000ED18F10806C0F80180810E948D020150AA
:1006100010400E151F05B9F72A960FB6F894DEBFE5
:100620000FBECDBFCF91DF911F910F91FF90EF9043
:10063000DF90BF90AF9008951F93CF93DF93EC01AD
:1006400010E003C00E948D021F5FFE01E10FF11D4B
:1006500080818823B9F7DF91CF911F9108951F936F
:10066000182F83E067E040E00E94D90083E066E055
:1006700041E00E94D90081E0612F0E94BC0183E02B
:1006800066E041E00E94D90085E08A95F1F783E0B9
:1006900066E040E00E94D9001F91089581E00E9429
:1006A0002F030895813039F4603168F4862F815822
:1006B0000E942F030895823031F4603120F4862F98
:1006C00081540E942F030895DF92EF92FF920F93BF
:1006D0001F93CF93DF938C01F62EE42ED22E862F1C
:1006E000880F880F880F805C0E942F03C0E0D0E045
:1006F000F801EC0FFD1F80810E948D022196C83009
:10070000D105B1F78E2D6D2D0E9452038F2D0E94C1
:100710008D02DF91CF911F910F91FF90EF90DF90AD
:1007200008950F931F9381E061E00E948A018EE596
:1007300091E028EC30E0F9013197F1F70197D9F712
:100740008CE30E942F031AE6812F8A95F1F78FE040
:100750000E942F031A95F1F781E00E942F0300EA0F
:100760001FE0C8010197F1F786E00E942F03C8013E
:100770000197F1F71F910F910895E5EFF0E0E80F71
:10078000F11D80E060810E94BC0108958FB78068F0
:100790008FBF08958FB78F778FBF0895809106011F
:1007A0008F5F8093060108950F931F938C01DA01E8
:1007B000F9012181205180813AE0839FC0011124F9
:1007C000280F2C93238120518281839FC001112403
:1007D000280FDB012C93258120518481839FC00148
:1007E0001124280FF80120831F910F910895AF92D3
:1007F000BF92CF92DF92EF92FF920F931F93DF93FE
:10080000CF930F92CDB7DEB76C01062F8FEF8983A0
:100810000E944E0380E690E00E941C0388EB9BE060
:1008200028EC30E0F9013197F1F70197D9F710E0A2
:100830005E010894A11CB11C88ECE82EF12CC501C6
:100840000E94E90189818F3FD1F3813431F0F601B3
:10085000E10FF11D80830E948D02113071F40E941E
:100860004E038EE690E00E941C0388E893E1F701B6
:100870003197F1F70197D9F727C0133071F40E942F
:100880004E038EE790E00E941C0388E893E1F70195
:100890003197F1F70197D9F717C01530A9F40E94E5
:1008A0004E038DE890E00E941C0382E060E00E940D
:1008B00052038DE990E00E941C0388E893E1F70160
:1008C0003197F1F70197D9F789818134C1F40E94FA
:1008D0004E038EEA90E00E941C0382E060E00E94DA
:1008E00052038DEB90E00E941C0388E893E128EC12
:1008F00030E0F9013197F1F70197D9F704C01F5F94
:10090000011708F09CCF0F90CF91DF911F910F91AD
:10091000FF90EF90DF90CF90BF90AF9008950F932E
:100920001F93CF93DF93C0E0D0E000EB16E3C2301B
:10093000D10509F43CC0C330D1053CF4209791F0B7
:10094000C130D10509F07FC020C0C430D10509F401
:1009500053C0C430D1050CF43DC0C530D10509F0F9
:1009600072C05DC083E060E041E00E94D9008091E8
:1009700006016AE00E94D106892F0E94BD03C801CA
:100980000197F1F783E060E05BC083E061E041E064
:100990000E94D900809106016AE00E94D1060E945F
:1009A000BD03C8010197F1F783E061E049C083E02E
:1009B00062E041E00E94D900809108016AE00E9453
:1009C000D106892F0E94BD03C8010197F1F783E08A
:1009D00062E036C083E063E041E00E94D90080918C
:1009E00008016AE00E94D1060E94BD03C801019778
:1009F000F1F783E063E024C083E064E041E00E941B
:100A0000D900809107016AE00E94D106892F0E94D7
:100A1000BD03C8010197F1F783E064E011C083E0F2
:100A200065E041E00E94D900809107016AE00E94E0
:100A3000D1060E94BD03C8010197F1F783E065E08C
:100A400040E00E94D9002196C630D10509F06FCF51
:100A5000809106018C3339F41092060180910801CF
:100A60008F5F80930801809108018C3339F41092D4
:100A70000801809107018F5F80930701DF91CF917B
:100A80001F910F910895CF92DF92EF92FF920F93F3
:100A90001F93DF93CF93CDB7DEB727970FB6F894A8
:100AA000DEBF0FBECDBF8FEF8983DE011296EFEF61
:100AB000F0E086E001900D928150E1F70E9449003C
:100AC0000E94C6030E94C6058EEC93E00E94230696
:100AD0000E9491030E944E038EEA90E00E941C0344
:100AE00082E061E00E9452038DEB90E00E941C03C3
:100AF0006E010894C11CD11C98ECE92EF12C8E01DA
:100B00000E5F1F4FC6010E94E90189818F3F09F4E2
:100B10003AC0893371F4C80166E00E94F70386E0A9
:100B200091E068E071E047E051E098010E94D40351
:100B30002AC00E944E0381E060E00E9452038EECC6
:100B400090E00E941C0388E893E1F7013197F1F7E8
:100B50000197D9F70E944E0381E060E00E945203A2
:100B60008EEA90E00E941C0382E060E00E94520343
:100B70008DEB90E00E941C0388E893E1F701319728
:100B8000F1F70197D9F70E948F04BCCF83B78F7B11
:100B900083BF83B7886083BF83B78F7E83BF83B7EC
:100BA0008F7D83BF89B7826089BF83E68CBF83B79F
:100BB000887F83BF83B7826083BF0895009711F455
:100BC00080E008959093100180930F0181E00895D3
:100BD0001F920F920FB60F9211242F933F934F93B2
:100BE0005F936F937F938F939F93AF93BF93EF9395
:100BF000FF9380911101909112010196909312013F
:100C00008093110183549F4069F410921201109255
:100C1000110180EC82BFE0910F01F091100130973B
:100C200009F00995FF91EF91BF91AF919F918F913D
:100C30007F916F915F914F913F912F910F900FBED8
:100C40000F901F901895009711F480E008959093ED
:100C50000C0180930B0181E008951F920F920FB653
:100C60000F9211242F933F934F935F936F937F9332
:100C70008F939F93AF93BF93EF93FF9380910D0159
:100C800090910E01019690930E0180930D01805179
:100C9000974259F410920E0110920D01E0910B0150
:100CA000F0910C01309709F00995FF91EF91BF91F8
:100CB000AF919F918F917F916F915F914F913F91F4
:100CC0002F910F900FBE0F901F9018958FB58E7FAC
:100CD0008FBD8FB58D7F8FBD8EB5877F8EBD8EB555
:100CE0008F7E8EBD8EB58E7F8EBD8EB582608EBDA1
:100CF0008EB58B7F8EBD08958CBF08959BBD8ABD38
:100D0000089599BD88BD089597BD86BD08958EB597
:100D100080648EBD89B7806289BF0895882319F0E9
:100D2000813041F404C08EB580648EBD08958EB5C7
:100D30008F7B8EBD089526B537B5C901089589B753
:100D40008F7D89BF089590930A01809309010895CA
:100D50001F920F920FB60F9211242F933F934F9330
:100D60005F936F937F938F939F93AF93BF93EF9313
:100D7000FF93E0910901F0910A01309709F009957C
:100D8000FF91EF91BF91AF919F918F917F916F9163
:100D90005F914F913F912F910F900FBE0F901F9039
:100DA0001895991B79E004C0991F961708F0961BB7
:100DB000881F7A95C9F780950895A1E21A2EAA1B7B
:100DC000BB1BFD010DC0AA1FBB1FEE1FFF1FA217FB
:100DD000B307E407F50720F0A21BB30BE40BF50BF8
:100DE000661F771F881F991F1A9469F76095709581
:100DF000809590959B01AC01BD01CF010895FB0149
:100E00009F01E8944230C4F04532B4F44A3029F4EA
:100E100097FB1EF4909581959F4F642F77270E9432
:100E20003007805D8A330CF0895D8193CB01009798
:100E3000A1F716F45DE251931082C9010C942007CA
:100E4000DC01FC01672F71917723E1F7329704C031
:100E50007C916D9370836291AE17BF07C8F30895BC
:100E6000AA1BBB1B51E107C0AA1FBB1FA617B707D0
:100E700010F0A61BB70B881F991F5A95A9F78095EC
:0C0E80009095BC01CD010895F894FFCFBF
:100E8C0020456E74657220486F7572733D00204565
:100E9C006E746572204D696E757465733D002045E6
:100EAC006E746572205365636F6E643D0020202064
:100EBC00205448414E4B20594F55202000202020D3
:100ECC0020544F2053455454494E47202000205461
:100EDC004F2053455420434C4F434B20002050523D
:100EEC004553534544202D2D2D3E203920002057AD
:100EFC004F524E472043484F49455320003738390D
:100F0C002F3435362A3132332D41303D2B0001023E
:100F1C000304050607C0F9A4B0999282F8809023C7
:060F2C0023232323230010
:00000001FF
